:020000040800F2
:100000000020002069160008551600085716000841
:1000100000000000000000000000000000000000E0
:100020000000000000000000000000005916000859
:1000300000000000000000005B1600085D160008CC
:10004000B916000800000000B9160008B91600082B
:10005000B9160008B9160008B9160008B916000844
:1000600000000000B9160008B9160008B91600080B
:10007000B9160008B9160008B916000800000000FB
:10008000B9160008B916000800000000B9160008EB
:10009000B9160008B9160008B9160008B916000804
:1000A000B9160008B9160008B9160008B9160008F4
:1000B000B916000800000000000000000000000069
:1000C00010B5064C2378002B07D1054B002B02D02E
:1000D000044800E000BF0123237010BD0C00002085
:1000E0000000000028170008044B10B5002B03D0B7
:1000F0000349044800E000BF10BDC04600000000F6
:100100001000002028170008002243088B4274D3F7
:1001100003098B425FD3030A8B4244D3030B8B4208
:1001200028D3030C8B420DD3FF22090212BA030C11
:100130008B4202D31212090265D0030B8B4219D3F2
:1001400000E0090AC30B8B4201D3CB03C01A524112
:10015000830B8B4201D38B03C01A5241430B8B425A
:1001600001D34B03C01A5241030B8B4201D30B0343
:10017000C01A5241C30A8B4201D3CB02C01A52416A
:10018000830A8B4201D38B02C01A5241430A8B422D
:1001900001D34B02C01A5241030A8B4201D30B0216
:1001A000C01A5241CDD2C3098B4201D3CB01C01A30
:1001B000524183098B4201D38B01C01A524143093A
:1001C0008B4201D34B01C01A524103098B4201D328
:1001D0000B01C01A5241C3088B4201D3CB00C01A95
:1001E000524183088B4201D38B00C01A524143080D
:1001F0008B4201D34B00C01A5241411A00D2014632
:10020000524110467047FFE701B5002000F006F8A4
:1002100002BDC0460029F7D076E770477047C04658
:1002200070B50500FA200D4B80001978FFF76CFFC0
:100230000B4B01001868FFF767FF00F073F804002C
:100240000120002C09D1032D07D8023822002900F3
:1002500000F03EF82000034B1D6070BD0000002040
:1002600008000020040000201023064A10B5116881
:1002700000200B431360FFF7D3FF01F09DF900202E
:1002800010BDC04600200240034A044B11681B7891
:100290005B1813607047C046280000200000002053
:1002A000014B18687047C0462800002070B5040054
:1002B000FFF7F6FF0500631C02D0044B1B78E4181F
:1002C000FFF7EEFF401BA042FAD370BD00000020F4
:1002D00030B5FF2503242A000440E400A240890130
:1002E0002940D243A140C3B200280ADBC0240B4BF3
:1002F00080088000C018A40003591A40114301511E
:1003000030BD0F200340083B05489B089B001B188D
:10031000D86902401143D961F2E7C04600E100E02C
:1003200000ED00E08022431E5204012093420DD2D2
:10033000C021074A07485360036A09061B021B0ACB
:100340000B43036200200723906013607047C04690
:1003500010E000E000ED00E00023F0B587B00A688F
:100360001400DC4001D107B0F0BD012614009E400E
:1003700034400294324200D192E04A681500019262
:10038000102295430395022D0DD107240F251C4003
:10039000A400A540DA0892008218176AAF430D69DD
:1003A000A5402F43176203225C00A240D543AC4610
:1003B000032507689743019A2A40A240039D3A43C8
:1003C000013D0260012D0FD8624685681540CA685C
:1003D000A2402A4382604568019AB543012612096A
:1003E00032409A402A4342606546C2682A408D687E
:1003F000A54080242A43C260019A640522424FD05E
:100400000125284A90279469FF052C43946192693D
:100410009C082A400592059A234AA400A4180F229A
:1004200002351D40AD00AA40A66896430022B8429E
:100430000CD01E4F0132B84208D01D4F0132B842D5
:1004400004D01C4F0132B84200D00232AA403243DD
:10045000A260194A029C1668029D019FE44335433D
:10046000FF0301D43500254015605668029D019FA9
:100470003543BF0301D43500254055609668029D81
:10048000019F3543FF0201D4350025409560D568B2
:10049000029E019F2E43BF0201D425402E00D6604C
:1004A00001335CE7001002400000014000040048F6
:1004B00000080048000C004800040140002A01D058
:1004C000816170478162FCE703689A69920701D5F0
:1004D00000229A6201229969114202D199690A4364
:1004E0009A61704730B5039C1204006822431A4396
:1004F000054B45688905640D890D1C43A5430A43D6
:100500002A43426030BDC046FF63FF03F8B503686D
:1005100016009A690400102310000D0020271840CF
:100520001A4218D1F8BD6A1C16D0FFF7B9FE801B1D
:10053000854201D3002D0ED12022636C13436364E6
:10054000230041331A7022000023423240341370DA
:1005500001202370E6E723689A693A42E3D010222B
:100560002000DA61DF61FFF7AFFF226805495368B9
:100570000B4053600423626C1343636423004133D4
:100580001F70E0E700E800FEF8B504000D0016005B
:10059000022723689B693B4201D00020F8BD32004E
:1005A00029002000FFF7B2FF002815D16B1CF0D006
:1005B000FFF776FE801BA84201D8002DE9D120224A
:1005C000636C13436364230041331A7022000023D9
:1005D00042324034137023700120DFE7F8B5040085
:1005E0000E0017001D002268936933409B1B59427F
:1005F0004B41BB4201D0002017E06B1CF4D0FFF749
:100600004FFE069BC01AA84201D8002DEBD1202234
:10061000636C012013436364230041331A7022008A
:1006200000234232403413702370F8BDF7B5140034
:100630001E00DAB2164B050000938023089F5B046E
:10064000FFF750FF39002800099AFFF79DFF0028A7
:1006500001D00120FEBD2B68012E0DD1E4B29C62B9
:10066000099B0022009380213B002800FFF7B6FF82
:10067000431E9841C0B2EDE7220A9A623900280071
:10068000099AFFF781FF0028E3D12B68E6E7C0460F
:1006900000200080F7B5050014001E00DAB2154BEB
:1006A000089F00930023FFF71DFF39002800099AD7
:1006B000FFF76AFF002801D00120FEBD2B68012E44
:1006C0000DD1E4B29C62099B0022009340213B00C3
:1006D0002800FFF783FF431E9841C0B2EDE7220ACE
:1006E0009A6239002800099AFFF74EFF0028E3D1EB
:1006F0002B68E6E700200080F8B504000D00160026
:10070000202723689B693B4201D00020F8BD3200BE
:1007100029002000FFF7FAFE002813D1FFF7C0FDE3
:10072000801BA84201D8002DEBD12022636C13431B
:100730006364230041331A702200002342324034A4
:10074000137023700120E1E770B504000120002C34
:100750003FD0250041352B78DAB2002B05D123009C
:10076000403320001A7000F03FFF242301212B703A
:1007700023681D481A68A6688A431A6061681B4A84
:100780000A401A619A6802409A60E268012A21D1FF
:1007900080210902314399605A6815491143596013
:1007A000DA6861690240DA60226900200A43A169BF
:1007B00009020A43DA60216AE2690A431A600122E7
:1007C00019680A431A60202360642B702063423446
:1007D000207070BD8421090231439960022ADBD167
:1007E000802212015A60D7E7FF7FFFFFFFFFFFF073
:1007F00000800002F0B589B007930EAB069204CBDF
:1008000004001B88039204930300413305931B7873
:100810000F000220202B08D1002A02D0049B002BBD
:1008200005D180239B006364012009B0F0BD230043
:10083000403302931B780220012BF6D00122029B49
:100840001A70FFF72DFD8021009005001923012269
:1008500020000902FFF7C2FE061EE5D12123059AFA
:10086000390013702300423305934023059A137017
:10087000039B60646362049B60636385109B20003C
:100880000093069A079B0195FFF7D0FE002802D03F
:10089000029B1E70C8E7638DFF2B54D9FF22802373
:1008A00022855B040090390020008026FFF71AFEA5
:1008B000B6042A0020001099FFF766FE0028B3D185
:1008C000636A22681978013391626362638D228DB5
:1008D000013B9BB26385013A638D92B22285002B66
:1008E00017D0002A15D180212000109B0095FFF71A
:1008F00075FE002800D097E7638DFF2B2BD9FF23CF
:1009000023858023FF2200905B0439002000FFF73D
:10091000E9FD638D002BCCD12A0020001099FFF750
:10092000EBFE002800D07FE7202123680D4DD96120
:100930005A682A405A60230041331970059B40349D
:100940001870207071E78023628D9B0492B222851B
:10095000D2B20090A7E7628D330092B22285D2B264
:100960000090D2E700E800FEF0B58BB0099310AB21
:10097000089204CB04001B880592069303004133C0
:1009800007931B780D000220202B08D1002A02D0EB
:10099000069B002B05D180239B00636401200BB0D4
:1009A000F0BD2300403304931B780220012BF6D0C6
:1009B0000127049B1F70FFF773FC802103900090B8
:1009C00019233A0020000902FFF708FE061EE5D1B0
:1009D0002223079A290013702300423307934023F0
:1009E000079A1370059B60646362069B606363856E
:1009F000039B20000193129B089A0093099BFFF729
:100A000049FE002802D0049B1E70C7E7628D364B5A
:100A1000FF2A59D9FF222285009380235B042900F5
:100A200020008026FFF75EFDFF27B604039B00220F
:100A3000009304212000129BFFF7D0FD0028ADD1C8
:100A40002368626A5B6A1370636A228D0133636292
:100A5000638D013A013B9BB26385638D92B222851F
:100A6000002B17D0002A15D1039B80210093200072
:100A7000129BFFF7B3FD002800D08FE7638DFF2B9B
:100A80002AD98023FF2227855B04009029002000BB
:100A9000FFF728FD638D002BC8D12000039A12991F
:100AA000FFF72AFE002800D078E7202123680F4DA9
:100AB000D9615A682A405A60230041331970079B54
:100AC0004034187020706AE7628D92B222850093DC
:100AD0008023D2B29B04A2E7628D330092B22285BA
:100AE000D2B20090D2E7C0460024008000E800FEA9
:100AF000F0B51E00002389B007930300059241332F
:100B00001A7804000225202A5BD1026897698022A6
:100B1000380012021040174253D122004032177899
:100B2000012F4ED0013D1570242289051A708B0DBE
:100B300060640493E368012B2BD13E4B049A13436A
:100B400022685360FFF7ACFB0390012223689D6984
:100B50009B696D091B09154013401D431CD0236878
:100B600010279B691A003A403B422DD1039B20215C
:100B7000009320003300FFF731FD002821D120230E
:100B800022680500D3612200403441321370207086
:100B900017E0A0239B01D1E7731CD6D0FFF780FBA1
:100BA000039BC01AB04201D8002ECED122002023D0
:100BB00041321370626C0125134363640023403497
:100BC0002370280009B0F0BD039B00220093202170
:100BD00033002000FFF702FD021EF2D123680598C2
:100BE000DF612027DF61079981420FD1802158689A
:100BF000C90101435960039B390000932000330071
:100C0000FFF7ECFC0028DCD12368DF61079B059A25
:100C100001330793079B934200D28BE722002023E6
:100C200041321370626C40341343636000232370BD
:100C3000C7E7C04600200002F0B504004134227826
:100C400003000F000220D6B2202A18D11D00403523
:100C50002A78012A13D0242222701B68233A1968AB
:100C6000074891431960196801400020196019680C
:100C70003943196019680A431A6026702870F0BD5C
:100C8000FFEFFFFF0200F0B5413214780300E5B238
:100C90000220202C17D11C0040342678012E12D0BF
:100CA000223010701B6823381E68074F86431E6071
:100CB0001E6809023E4031431960196808431860F4
:100CC000002015702070F0BDFFF0FFFFF0B50400AC
:100CD00085B0002845D00368DB072FD423689B0725
:100CE00000D581E023681B0700D5BCE023685B07C3
:100CF00000D5DFE02368DB061AD562690423B54D11
:100D0000012A00D04AE1696B02270B436B636B6BCE
:100D10001A436A63FFF7C4FA06006B6B3B4200D1CB
:100D200035E1F8216A6BA3698A43DB0013436B63E7
:100D3000236A002B00D059E100202AE00C21A54DA8
:100D40006A680A40042A06D06B680B40082B0AD157
:100D50006B68DB0307D52B689B03BFD56368002B4B
:100D6000BCD1012015E06368012B14D180232A68CF
:100D70005B0213432B60FFF793FA80270600BF0244
:100D80002B683B42AAD1FFF78BFA801B6428F7D966
:100D9000032005B0F0BD002B16D12B688E4A8027AA
:100DA00013402B602B688D4ABF0213402B60FFF766
:100DB00077FA06002B683B4200D18FE7FFF770FA05
:100DC000801B6428F6D9E3E7052B05D180232A6828
:100DD000DB0213432B60C9E72B687F4A13402B606B
:100DE0002B687E4A1340C5E70C227A4D6B6813428C
:100DF00006D06B681340082B10D16B68DB030DD451
:100E00002B689B0702D5E368012BAAD1F8212A6839
:100E100023698A43DB0013432B6063E7E268012305
:100E2000002A0FD02A68022713432B60FFF738FAF5
:100E300006002B683B42E9D1FFF732FA801B0228FB
:100E4000F7D9A5E72A6802279A432A60FFF728FA0C
:100E500006002B683B4200D144E7FFF721FA801BD4
:100E60000228F6D994E7E26901235A4D002A10D0EE
:100E70006A6A022713436B62FFF712FA06006B6A75
:100E80003B4200D032E7FFF70BFA801B0228F6D96D
:100E90007EE76A6A02279A436A62FFF701FA060050
:100EA0006B6A3B4200D121E7FFF7FAF9801B022869
:100EB000F6D96DE780220021464D5205EB6900917D
:100EC000134208D1EB691343EB61EB6913400393C1
:100ED000039B012300938027414E7F0033683B42F0
:100EE00006D0A368012B13D12A6A13432B6230E08A
:100EF00033683B433360FFF7D3F9019033683B42DB
:100F0000EFD1FFF7CDF9019BC01A6428F6D93FE76E
:100F10000122002B14D12B6A022793432B622B6AE8
:100F2000033293432B62FFF7BBF906002B6A3B4267
:100F300016D0FFF7B5F92B4B801B9842F6D927E75F
:100F4000052B16D1296A013B0B432B622B6A1A43EE
:100F50002A62FFF7A5F9022706002B6A3B420FD051
:100F6000009B012B00D0C5E6EB691F4A1340EB61E3
:100F7000C0E62B6A934304222B622B6A9343B5E7A6
:100F8000FFF78EF9174B801B9842E6D900E7FFF771
:100F900087F9801B022800D8BFE6F9E6053203D1A5
:100FA0006A6B9A436A63BCE66A6B022713430122A9
:100FB0006B636B6B93436B63FFF772F906006B6BAC
:100FC0003B4200D1B4E6FFF76BF9801B0228F6D94B
:100FD000DEE6C04600100240FFFFFEFFFFFFFBFF02
:100FE0000070004088130000FFFFFFEF0C21344D1C
:100FF0006A680A40082A47D0324A022B32D12B684D
:10100000802713402B60FFF74BF90600BF042B68C5
:101010003B4221D10F22EB6A80269343E26AB60459
:101020001343EB62616AA36A6A680B4326490A406C
:1010300013436B6080232A685B0413432B60FFF724
:101040002FF904002B68334200D075E6FFF728F92A
:10105000001B0228F6D99BE6FFF722F9801B022825
:10106000D5D995E62B68802613402B60FFF718F939
:101070000400B6042B68334200D15DE6FFF710F997
:10108000001B0228F6D983E61800012B00D180E668
:1010900080216B68606A4902EA6A1940814200D087
:1010A0005FE60F210A40E16A8A4200D059E6F02249
:1010B00092031340A26A934200D13DE651E6C04636
:1010C00000100240FFFFFFFEFFFFC2FF70B588B0B7
:1010D00010221249684604AD00F014FB10222800CB
:1010E0000F4900F00FFB0C220E4E73681A40082ABD
:1010F00011D10F206A46990C0140545CF26A0240FB
:10110000A95CDB0305D50848FEF7FEFF604308B085
:1011100070BD0648FAE70448F9E7C04640170008E2
:10112000511700080010024000127A0000093D002B
:10113000F7B504000E00002801D10120FEBD0122F8
:10114000374D2B6813408B421CD321688B0722D468
:10115000CB072FD401232A681A40B24251D8236802
:10116000304D5B0754D4FFF7B1FF6B682E4A1B0666
:101170001B0FD35CD8402D4B18600020FFF750F8B0
:101180000020DBE72B6893430B432B602B68134055
:101190008B42D2D1D9E7234A4B0704D5E0235068CC
:1011A000DB0003435360F02053688343A06803438C
:1011B0005360CDE71B4F62683B68012A19D19B033E
:1011C000BBD503217B688B4313437B60FFF768F833
:1011D00001900C237A681A4063689B009A42B9D048
:1011E000FFF75EF8019BC01A114B9842F1D903201A
:1011F000A4E7022A02D19B01E3D49EE79B07E0D437
:101200009BE72A689A432A602A681A42A7D094E783
:101210006B68084A1340E26813436B60A3E7C0465B
:101220000020024000100240621700080800002061
:1012300088130000FFF8FFFFF0B50368050085B0D4
:10124000DB032AD580220021384C5205E369009146
:10125000134208D1E3691343E361E3691340039345
:10126000039B012300938027314E7F0033683B426C
:1012700028D0226AC02311009B002E4E19401A422A
:1012800032D1236A1E406B681E43009B2662012BED
:1012900003D1E369284A1340E3612A68D30706D5DE
:1012A000032022490B6B8343A86803430B63002090
:1012B000930617D510211D4A136B8B43E9680B4326
:1012C00013630FE033683B433360FEF7E9FF01909F
:1012D00033683B42CDD1FEF7E3FF019BC01A64287F
:1012E000F6D9032005B0F0BD6A6813408B42C8D020
:1012F0008023226A206A11005B0203432362236A6F
:101300000E483140034023622162D307B9D5FEF76E
:10131000C7FF07000222236A1342B2D1FEF7C0FFC3
:10132000074BC01B9842F5D9DBE7C04600100240CE
:1013300000700040FFFCFFFFFFFFFFEFFFFFFEFF1D
:101340008813000010B5102494B02C22002109A8A5
:1013500000F0E1F922000021684600F0DCF92200EB
:10136000002104A800F0D7F902230C94089300246C
:10137000013B08A80B93FFF7A9FC0723210068464F
:101380000093019402940394FFF7D2FE202304A853
:1013900004930794FFF750FF14B010BDF0B58DB063
:1013A000FEF762FFFFF7CEFF1422002107A800F02E
:1013B000B2F980207A4BC0025969802401435961F7
:1013C0008021002501265A69890202400592059A6A
:1013D0005A69744F0A435A615B69E4000B4000226A
:1013E000210038000693069BFFF768F807A938002C
:1013F000079409950A950896FEF7AEFF6A4C6B4B69
:10140000200023606A4BA560636025616561A5616A
:10141000E5612562E660FFF797F929002000FFF7F4
:101420000BFC29002000FFF72DFC7B69614A50214D
:1014300013407B610123320020005B42FFF758FB21
:10144000013D3300320050212000FFF751FB0028FE
:1014500007D02B00320050212000FFF749FB002865
:10146000EFD112270125322600236A464E4C6F44E5
:1014700013745374D37413773B703E222B005021A6
:101480002000029601950097FFF76EFA6420FEF7A0
:101490000DFF03223B78502193433B703B322B00DE
:1014A0002000029601950097FFF7A4F96420FEF74B
:1014B000FDFE04AB3D225021009320002B0002963C
:1014C0000195FFF751FA6420FEF7F0FE6B46082203
:1014D0001B7C694693431A00072313430B7404AB28
:1014E0003D225021009320002B0002960195FFF72A
:1014F00081F96420FEF7DAFE07AB40225021009309
:1015000020002B0002960195FFF72EFA6420FEF7CB
:10151000CDFE6B4603221B7F502193436A4613770F
:1015200007AB4022009320002B0002960195FFF7A5
:1015300061F96420FEF7BAFE11236B443B2250216F
:10154000009320002B0002960195FFF70DFA64200E
:10155000FEF7ACFE6B4610225B7C502193436A463B
:10156000537411236B443B22009320002B000296FE
:101570000195FFF73FF96420FEF798FE13236B44B3
:1015800034225021009320002B0002960195FFF792
:10159000EBF96420FEF78AFE6420FEF787FEFEE783
:1015A00000100240000400482C00002000540040BD
:1015B0000E090020FFFBFFFF01200A4B82B0996952
:1015C0000143996180219A69490502400092009A7D
:1015D000DA690A43DA61DB690B400193019B02B0CF
:1015E0007047C0460010024010B5040088B01422B5
:1015F000002103A800F08FF8134B22689A4220D1F3
:101600008021124CC902626911480A436261636910
:1016100003220B400193019BC0239B0003931223E1
:1016200003A90493113B059306920793FEF794FEDA
:101630008021E26989030A43E261E3690B40029376
:10164000029B08B010BDC04600540040001002408C
:10165000000400487047FEE77047704710B5FEF77A
:1016600013FE10BD704700000D4885460D480E4919
:101670000E4A002302E0D458C4500433C4188C42EC
:10168000F9D30B4A0B4C002301E013600432A24251
:10169000FBD3FFF7E7FF00F011F8FFF77FFEFEE74F
:1016A00000200020000000200C0000207C17000813
:1016B0000C00002078000020FEE7000070B5002636
:1016C0000C4D0D4C641BA410A64209D1002600F05D
:1016D0002BF80A4D0A4C641BA410A64205D170BD1C
:1016E000B300EB5898470136EEE7B300EB58984744
:1016F0000136F2E774170008741700087417000821
:1017000078170008002310B59A4200D110BDCC5CB8
:10171000C4540133F8E703008218934200D17047A4
:1017200019700133F9E70000F8B5C046F8BC08BCF1
:101730009E467047F8B5C046F8BC08BC9E46704748
:1017400002030405060708090A0B0C0D0E0F101002
:10175000000102030405060708090A0B0C0D0E0F11
:101760001000000000000000000001020304060752
:041770000809000064
:04177400E900000880
:04177800C1000008A4
:0C177C00010000000400000000127A00D0
:040000050800166970
:00000001FF
